{
    "_format": "hh-sol-artifact-1",
    "contractName": "DataStorage",
    "sourceName": "contracts/DataStorage.sol",
    "abi": [
        {
            "anonymous": false,
            "inputs": [
                {
                    "indexed": false,
                    "internalType": "address",
                    "name": "_address",
                    "type": "address"
                },
                {
                    "indexed": false,
                    "internalType": "uint256",
                    "name": "_deposit",
                    "type": "uint256"
                },
                {
                    "indexed": false,
                    "internalType": "uint256",
                    "name": "_totalDeposit",
                    "type": "uint256"
                }
            ],
            "name": "AddDeposit",
            "type": "event"
        },
        {
            "anonymous": false,
            "inputs": [
                {
                    "indexed": false,
                    "internalType": "address",
                    "name": "_address",
                    "type": "address"
                }
            ],
            "name": "AddToStorage",
            "type": "event"
        },
        {
            "inputs": [
                {
                    "internalType": "address",
                    "name": "",
                    "type": "address"
                }
            ],
            "name": "AddressDeposit",
            "outputs": [
                {
                    "internalType": "uint256",
                    "name": "",
                    "type": "uint256"
                }
            ],
            "stateMutability": "view",
            "type": "function"
        },
        {
            "inputs": [
                {
                    "internalType": "address",
                    "name": "",
                    "type": "address"
                }
            ],
            "name": "AddressName",
            "outputs": [
                {
                    "internalType": "string",
                    "name": "",
                    "type": "string"
                }
            ],
            "stateMutability": "view",
            "type": "function"
        },
        {
            "inputs": [
                {
                    "internalType": "address",
                    "name": "_address",
                    "type": "address"
                },
                {
                    "internalType": "uint256",
                    "name": "_deposit",
                    "type": "uint256"
                }
            ],
            "name": "addAddressDeposit",
            "outputs": [],
            "stateMutability": "nonpayable",
            "type": "function"
        },
        {
            "inputs": [
                {
                    "internalType": "address",
                    "name": "_address",
                    "type": "address"
                },
                {
                    "internalType": "string",
                    "name": "_name",
                    "type": "string"
                }
            ],
            "name": "addAddressName",
            "outputs": [],
            "stateMutability": "nonpayable",
            "type": "function"
        },
        {
            "inputs": [],
            "name": "totalContractDeposit",
            "outputs": [
                {
                    "internalType": "uint256",
                    "name": "",
                    "type": "uint256"
                }
            ],
            "stateMutability": "view",
            "type": "function"
        }
    ],
    "bytecode": "0x608060405234801561001057600080fd5b50610819806100206000396000f3fe608060405234801561001057600080fd5b50600436106100575760003560e01c8063190654061461005c578063486205891461008c578063be6c5285146100aa578063d3fdd626146100c6578063db28847d146100e2575b600080fd5b61007660048036038101906100719190610406565b610112565b6040516100839190610531565b60405180910390f35b6100946101b2565b6040516100a19190610553565b60405180910390f35b6100c460048036038101906100bf9190610483565b6101b8565b005b6100e060048036038101906100db919061042f565b61022b565b005b6100fc60048036038101906100f79190610406565b6102b9565b6040516101099190610553565b60405180910390f35b60006020528060005260406000206000915090508054610131906106b4565b80601f016020809104026020016040519081016040528092919081815260200182805461015d906106b4565b80156101aa5780601f1061017f576101008083540402835291602001916101aa565b820191906000526020600020905b81548152906001019060200180831161018d57829003601f168201915b505050505081565b60025481565b80600160008473ffffffffffffffffffffffffffffffffffffffff1673ffffffffffffffffffffffffffffffffffffffff168152602001908152602001600020600082825461020791906105e0565b92505081905550806002600082825461022091906105e0565b925050819055505050565b806000808473ffffffffffffffffffffffffffffffffffffffff1673ffffffffffffffffffffffffffffffffffffffff168152602001908152602001600020908051906020019061027d9291906102d1565b507f20e03f25c8605172fdc2da9aefd56c9dc6dd5265a54e218d9bad3c8714b87d4c826040516102ad9190610516565b60405180910390a15050565b60016020528060005260406000206000915090505481565b8280546102dd906106b4565b90600052602060002090601f0160209004810192826102ff5760008555610346565b82601f1061031857805160ff1916838001178555610346565b82800160010185558215610346579182015b8281111561034557825182559160200191906001019061032a565b5b5090506103539190610357565b5090565b5b80821115610370576000816000905550600101610358565b5090565b600061038761038284610593565b61056e565b90508281526020810184848401111561039f57600080fd5b6103aa848285610672565b509392505050565b6000813590506103c1816107b5565b92915050565b600082601f8301126103d857600080fd5b81356103e8848260208601610374565b91505092915050565b600081359050610400816107cc565b92915050565b60006020828403121561041857600080fd5b6000610426848285016103b2565b91505092915050565b6000806040838503121561044257600080fd5b6000610450858286016103b2565b925050602083013567ffffffffffffffff81111561046d57600080fd5b610479858286016103c7565b9150509250929050565b6000806040838503121561049657600080fd5b60006104a4858286016103b2565b92505060206104b5858286016103f1565b9150509250929050565b6104c881610636565b82525050565b60006104d9826105c4565b6104e381856105cf565b93506104f3818560208601610681565b6104fc816107a4565b840191505092915050565b61051081610668565b82525050565b600060208201905061052b60008301846104bf565b92915050565b6000602082019050818103600083015261054b81846104ce565b905092915050565b60006020820190506105686000830184610507565b92915050565b6000610578610589565b905061058482826106e6565b919050565b6000604051905090565b600067ffffffffffffffff8211156105ae576105ad610775565b5b6105b7826107a4565b9050602081019050919050565b600081519050919050565b600082825260208201905092915050565b60006105eb82610668565b91506105f683610668565b9250827fffffffffffffffffffffffffffffffffffffffffffffffffffffffffffffffff0382111561062b5761062a610717565b5b828201905092915050565b600061064182610648565b9050919050565b600073ffffffffffffffffffffffffffffffffffffffff82169050919050565b6000819050919050565b82818337600083830152505050565b60005b8381101561069f578082015181840152602081019050610684565b838111156106ae576000848401525b50505050565b600060028204905060018216806106cc57607f821691505b602082108114156106e0576106df610746565b5b50919050565b6106ef826107a4565b810181811067ffffffffffffffff8211171561070e5761070d610775565b5b80604052505050565b7f4e487b7100000000000000000000000000000000000000000000000000000000600052601160045260246000fd5b7f4e487b7100000000000000000000000000000000000000000000000000000000600052602260045260246000fd5b7f4e487b7100000000000000000000000000000000000000000000000000000000600052604160045260246000fd5b6000601f19601f8301169050919050565b6107be81610636565b81146107c957600080fd5b50565b6107d581610668565b81146107e057600080fd5b5056fea26469706673582212205d86de3cec4041558772d3df0b81f53b1e7eab90f17638c33c3ccbf2d89a5d7864736f6c63430008040033",
    "linkReferences": {},
    "deployedLinkReferences": {}
}